:0E0000000C9474000C9400000C9400000C94FE
:10000E0000000C9400000C9400000C9400000C9462
:10001E0000000C9400000C9400000C9400000C9452
:10002E0000000C947E020C9495020C9400000C942B
:10003E0000000C9400000C9400000C94D5010C945C
:10004E00CB020C9400000C9400000C9400000C9455
:10005E0000000C9400000C9400000C9400000C9412
:10006E0000000C9400000C9400000C9400000C9402
:10007E0000000C9400000C9400000C94000010275B
:10008E00E80364000A0001000010000110000100E6
:10009E00F82A409C100E280A0000780578053100D9
:1000AE0035003200330034000A0004009E000200C6
:1000BE002105A80002002305AA0002000005AC00DD
:1000CE0002000205AE0002000405B00002000605A3
:1000DE00B20002000805B4000000F894EE27ECBB55
:1000EE00F1E0F5BFE5BFE0936C008DE0A2E0BB2729
:1000FE00ED938A95E9F780E090E1A0E0B1E0ED9311
:10010E000197E9F7E6EBF0E085919591009761F0A4
:10011E00A591B59105901590BF01F00105900D9236
:10012E000197E1F7FB01F0CF8BBFEFEFEDBFE0E101
:10013E00EEBFC0E0D5E00C94D2021A93E0E0E0935B
:10014E001105E0931205E0931305CC24DD24E09312
:10015E000A05E0930B05D89AD99ADA9ADB9AE7B793
:10016E00EF7EE7BFE7B7E77FE7BFE0E0E09320056C
:10017E0010E0133090F4E12FF0E0EC5EFA4FA0E0C7
:10018E00A083E12FF0E0E95EFA4FA083E12FF0E0CB
:10019E00E65EFA4FA0831F5FECCF19910895E0E061
:1001AE00EBB9E8E9EAB9E6E0E0939500E0E0E09328
:1001BE009000E7E6E9B90895559AAAE0B0E00E94EA
:1001CE0015030895BA93AA931A930A9300E010E0C8
:1001DE0000E010E00E94F802E03079F00E94F80290
:1001EE00F0E0E0931105F0931205E6DFAAE0B0E02F
:1001FE000E9415030F5F1F4FEDCF198108812496C2
:10020E000895BA93AA93DC9AA881B9810E94150326
:10021E00DC986CC0E0912205F070EBBDE0912105F9
:10022E00EABDE0912405F070E9BDE0912305E8BD3B
:10023E000895BA93AA93A881B9810E94150356C056
:10024E00D898E7B7E0610BC0D998E7B7E06107C06F
:10025E00DA98E7B7E06103C0DB98E7B7E860E7BF7D
:10026E000895E0E0E0931405E0911505A0911405C2
:10027E00AE1748F4E5DFD401DCDFE0911405EF5F43
:10028E00E0931405F1CF0895E0E0E0931705E091B7
:10029E001805A0911705AE1748F4D6DFD401C9DFB3
:1002AE00E0911705EF5FE0931705F1CF0895E0E0B9
:1002BE00E0931A05E0911B05A0911A05AE1748F4BC
:1002CE00C7DFD401B6DFE0911A05EF5FE0931A05A0
:1002DE00F1CF0895BA93AA93E881F981E0930D05C1
:1002EE00F0930E05B9DFA881B981A3DF2296089598
:1002FE00AA93A881A13311F4E1E00EC0A881A23324
:10030E0011F4E2E009C0A881A33311F4E3E004C0C4
:10031E00A881A03309F4E0E0219608951A930A9378
:10032E0010E001E0C49AD201D5DF10E0123018F5CA
:10033E0001E00430B8F4E0911605E01708F091DF03
:10034E00E0911905E01708F09FDFE0911C05E0171A
:10035E0008F0ADDFC49AA4EFB1E053DFD501BADFE8
:10036E000F5FE7CFA4E6B0E00E941503A4EFB1E063
:10037E0048DF1F5FDBCFC49AA0910F05B091100527
:10038E00F301EA1BFB0BDF01A5DFC498D301A2DF4B
:10039E00E0E0E0930C050991199108950A921A92E2
:1003AE00FA926A937A938A939A93AA93BA93EA9358
:1003BE00FA93EFB7EA93ECB1E0931305F0E0E83768
:1003CE00A0E0FA0729F4EBB3A1E0EA27EBBB81C06A
:1003DE00E937A0E0FA0729F4EBB3A8E0EA27EBBB74
:1003EE0078C0EA37A0E0FA0729F4EBB3A0E1EA27D8
:1003FE00EBBB6FC0E337A0E0FA0721F49EDEA0E06E
:10040E00B5E066C0E536A0E0FA0739F4A2E0B5E043
:10041E00D9DEE1E0E0930C055CC0E136A0E0FA071E
:10042E0021F0E236A0E0FA0709F404C0E336A0E0BA
:10043E00FA0729F40E94FF02A4E0B5E049C0E033B8
:10044E00A0E0FA0721F0E133A0E0FA0709F404C0B6
:10045E00E233A0E0FA0709F404C0E333A0E0FA07A0
:10046E00C1F50E94FF02A6E0B5E0ACDEA09120052A
:10047E00A33079F5E0E0E0932005E0911D05F0E072
:10048E00E136A0E0FA0749F40E940D03E09315054A
:10049E000E941103E093160519C0E236A0E0FA0798
:1004AE0049F40E940D03E09318050E941103E09396
:1004BE0019050CC0E336A0E0FA0741F40E940D03C3
:1004CE00E0931B050E941103E0931C05A8E0B5E024
:1004DE0079DEE991EFBFF991E991B991A9919991DD
:1004EE00899179916991F990199009901895EA93EB
:1004FE00FA93EFB7EA93F60131966F01C814D90457
:10050E0040F0D89AD99ADA9AE7B7EF7EE7BFCC24B3
:10051E00DD24E991EFBFF991E9911895AA93BA9369
:10052E00EA93FA93EFB7EA93AAE0B5E0ED91FD9165
:10053E003196FE93EE93E0910D05F0910E05A0918C
:10054E000A05B0910B05AE17BF07B8F0DB9AE7B7F7
:10055E00E77FE7BFE0910A05F0910B05A0910F052B
:10056E00B0911005EA0FFB1FE0930F05F0931005F5
:10057E00E0E0E0930A05E0930B05E991EFBFF991F6
:10058E00E991B991A9911895EA93E0911105ECB909
:10059E005598E9911895E2E0E2B9EFEFE7BBEFE18C
:1005AE00EABBE0E8EFBFE0E5EFBDEAE0EEBDE0E07C
:1005BE00E0937A00EABDEBBDE8BDE9BDE0937900BA
:1005CE00E0937800EDBDECBDE7BFE0937D00B5DDB7
:1005DE00E6DD20DEA0910C05A13009F49FDEFACFF6
:1005EE00FFCFF801AA81BB81AE0FBF1FEC9108951A
:1005FE00E0912005F0E0E35EFA4FA0911305A08391
:10060E00E0912005EF5FE09320050895A0911E056F
:10061E000C947F01A0911F050C947F01109639F068
:10062E0080EA9FE00197F1F7A8951197C9F7089511
:00000001FF
