:100000000C9460000C9400000C9400000C94000010
:100010000C9400000C9400000C9400000C94000060
:100020000C9400000C9400000C9400000C94000050
:100030000C9490000C94AA000C9400000C94000006
:100040000C9400000C9400000C94F6010C946802CF
:100050000C9400000C9400000C9400000C94000020
:100060000C9400000C9400000C9400000C94000010
:100070000C9400000C9400000C9400000C94000000
:100080000C9400000C9400000C9400001027E8036E
:1000900064000A0001000010000110000100102798
:1000A000204E900164000000C409C4090A00040045
:1000B0009E0002001605A80002001805AA00000014
:1000C000F894EE27ECBBF1E0F5BFE5BFE0936C00E0
:1000D0008DE0A2E0BB27ED938A95E9F780E090E1FF
:1000E000A0E0B1E0ED930197E9F7ECEAF0E085914B
:1000F0009591009761F0A591B59105901590BF017C
:10010000F00105900D920197E1F7FB01F0CF8BBF55
:10011000EFEFEDBFE0E1EEBFC0E0D5E00C946F0281
:10012000EA93FA93EFB7EA93F60131966F018C14D4
:100130009D0459F4D89AD99ADA9AE7B7EF7EE7BFC7
:10014000CC24DD24E1E0E0930605E991EFBFF991CD
:10015000E9911895AA93BA93EA93FA93EFB7EA93C1
:10016000A0E0B5E0ED91FD913196FE93EE93E09124
:100170000205F0910305A0910005B0910105EA1771
:10018000FB07D1F4DB9AE7B7E77FE7BFE091000513
:10019000F0910105A0910405B0910505EA0FFB1F40
:1001A000E0930405F0930505E0E0E0930005E0939B
:1001B0000105E1E0E0930605E991EFBFF991E991CE
:1001C000B991A9911895E0911705F070EBBDE091F8
:1001D0001605EABDE0911905F070E9BDE09118053A
:1001E000E8BD0895559AAEE1B0E00E949E020895E0
:1001F000ACE2B1E00E949E02E5E6E0930705F2DF83
:1002000008951A93E0E0E0930705E0930805CC24F5
:10021000DD24E0930005E093010510E0133090F435
:10022000E12FF0E0E75FFA4FA0E0A083E12FF0E0DC
:10023000E45FFA4FA083E12FF0E0E15FFA4FA08383
:100240001F5FECCF19910895AA93E0E0E0930605B3
:10025000E881F0E0309721F4D898E7B7E06117C063
:10026000E130A0E0FA0721F4D998E7B7E0610FC0C8
:10027000E230A0E0FA0721F4DA98E7B7E06107C0BE
:10028000E330A0E0FA0721F4DB98E7B7E860E7BFC6
:1002900061C0A0E0D9DFE0E0E0930905E0910A0544
:1002A000A0910905EA1750F0E0910605E030E1F36E
:1002B000E0910905EF5FE0930905F0CF0895A1E013
:1002C000C3DFE0E0E0930C05E0910D05A0910C0583
:1002D000EA1750F0E0910605E030E1F3E0910C05FB
:1002E000EF5FE0930C05F0CF0895A2E0ADDFE0E012
:1002F000E0930F05E0911005A0910F05EA1750F06B
:10030000E0910605E030E1F3E0910F05EF5FE09347
:100310000F05F0CF0895BA93AA93E881F981E0938D
:100320000205F0930305A3E08FDFE0910605E030BE
:10033000E1F322960895AA93A881A13311F4E1E094
:1003400009C0A881A23311F4E2E004C0A881A3335C
:1003500009F4E3E021960895E0E0EBB9E8E9EAB9B1
:10036000E6E0E0939500E0E0E0939000E7E6E9B98D
:1003700008951A930A93C49AD201CDDF10E0123087
:1003800000F5E0E0E0930905E0930C05E0930F052C
:1003900001E00430A0F4E0910B05E01708F079DFEC
:1003A000E0910E05E01708F08ADFE0911105E017F3
:1003B00008F09BDFC49AD501AEDF0F5FEACF1F5F65
:1003C000DECFC49AA0910405B0910505F301EA1BA4
:1003D000FB0BDF01A0DF0CDFA8EEB3E00E949E0262
:1003E000C498D30198DF0991199108950A921A923D
:1003F000FA926A937A938A939A93AA93BA93EA9316
:10040000FA93EFB7EA93ECB1E0930805A0910805E1
:10041000A33729F4F6DEE0E0E09315054BC0A09188
:100420000805A53611F4A5DF45C0A0910805A13641
:1004300021F0A23611F0A33619F40E9488023AC0C6
:10044000A0910805A03321F0A13311F0A23391F55A
:100450000E948802A0911505A33061F5E0E0E093C9
:100460001505E0911205F0E0E136A0E0FA0749F445
:100470000E949602E0930A050E949A02E0930B05FF
:1004800019C0E236A0E0FA0749F40E949602E09310
:100490000D050E949A02E0930E050CC0E336A0E021
:1004A000FA0741F40E949602E09310050E949A0216
:1004B000E0931105E991EFBFF991E991B991A99103
:1004C0009991899179916991F9901990099018956C
:1004D000EA93E0910705ECB95598E9911895E2E89F
:1004E000E2B9E8E7E7BBEFE0EABBE0E8EFBFE0E551
:1004F000EFBDEAE0EEBDE0E0EABDEBBDE8BDE9BD81
:10050000EDBDECBDE7BF7DDE27DF5DDEFFCFFFCFBA
:10051000E0911505F0E0EE5EFA4FA0910805A0838A
:10052000E0911505EF5FE09315050895A09113057F
:100530000C949B01A09114050C949B01109639F02A
:1005400080EA9FE00197F1F7A8951197C9F7089500
:00000001FF
