:040000000C948A00D2
:100004000C9400000C9400000C9400000C9400006C
:100014000C9400000C9400000C9400000C9400005C
:100024000C9400000C9400000C9400000C94E20169
:100034000C9400000C9400000C9400000C9400003C
:100044000C9400000C94F9010C946B020C940000C5
:100054000C9400000C9400000C9400000C9400001C
:100064000C9400000C9400000C9400000C9400000C
:100074000C9400000C9400000C9400000C940000FC
:100084000C9400000C9400001027E80364000A009C
:10009400010000100001100001000000C409C4099F
:1000A40000002003D0070000000000000000000052
:1000B400303030303030303030304D30004D310061
:1000C4004D32004D33004531005331004532005369
:1000D40032000A0004009E0002001A05A800030072
:1000E4000005BE0003000305C10003000605C400AB
:1000F40003000905C70003000C05CA0003000F052F
:10010400CD0003001205D00003001505D300000044
:10011400F894EE27ECBBF1E0F5BFE5BFE0936C008B
:100124008DE0A2E0BB27ED938A95E9F780E090E1AA
:10013400A0E0B1E0ED930197E9F7E6EDF0E08591F9
:100144009591009761F0A591B59105901590BF0127
:10015400F00105900D920197E1F7FB01F0CF8BBF01
:10016400EFEFEDBFE0E1EEBFC0E0D5E00C946E022E
:10017400D89AD99ADA9ADB9AAA24BB24E0E0E093CD
:100184001805E09319050895E0E0EBB9E8E9EAB948
:10019400E6E0E0939500E0E0E0939000E7E6E9B95B
:1001A4000895559AAAE0B0E00E94AA030895BA936C
:1001B400AA93649784E1A0E0B0E0EAEAF0E00E9448
:1001C400F3031A9310E01430E0F4E12FF0E0DE01C1
:1001D4001B96EA0FFB1FBF01AD89BE89EAE0F0E080
:1001E4000E94D003E05DDB01EC93AD89BE89EAE0B7
:1001F400F0E00E94CB03ED8BFE8B309711F01F5F74
:10020400E2CF10E01A30C0F4E12FF0E0DE011196E5
:10021400EA0FFB1FBF01E12FF0E0A3E0B0E00E9472
:10022400EC03EA1BFB0BDE011B96AE0FBF1FEC9128
:10023400DB01EC931F5FE6CFFE01319618816796D0
:100244000895BA93AA931A930A9300E010E000E089
:1002540010E0F801AA81BB81AE0FBF1FEC91E03022
:1002640051F0F801AA81BB81AE0FBF1F5C9099DFEA
:100274000F5F1F4FEECF1981088124960895E72D53
:10028400F070EBBD6ABCE92DF070E9BD88BC08953F
:100294000E947F03E0911C05E030D9F4A0911D0574
:1002A400A13049F4F601EC59FF4F6F01E0E0E0930F
:1002B4001D050E947F03A0911E05A13049F4E4E6C8
:1002C400F0E0CE1ADF0AE0E0E0931E050E947F030F
:1002D400E1CF72C00E948503E0911C05E03039F53E
:1002E400A0911D05A13079F4E0911A05F0911B0548
:1002F400EC59FF4FE0931A05F0931B05E0E0E093FF
:100304001D050E948503A0911E05A13079F4E0919A
:100314001A05F0911B05E456F040E0931A05F0939A
:100324001B05E0E0E0931E050E948503D5CF44C081
:100334000E948E03E0911C05E030D9F4A0911D05C4
:10034400A13049F4F301EC59FF4F3F01E0E0E093A1
:100354001D050E948E03A0911E05A13049F4E4E618
:10036400F0E06E1A7F0AE0E0E0931E050E948E031F
:10037400E1CF21C00E949403E0911C05E030D9F440
:10038400A0911D05A13049F4F401EC59FF4F4F0130
:10039400E0E0E0931D050E949403A0911E05A130A6
:1003A40049F4E4E6F0E08E1A9F0AE0E0E0931E05CB
:1003B4000E949403E1CF63DFE0E0E0931C0508951D
:1003C400EA93FA93EFB7EA93F50131965F01CA1401
:1003D400DB0441F4D89AD99ADA9AE7B7EF7EE7BFFB
:1003E400AA24BB24E991EFBFF991E99118950A92E7
:1003F4001A92FA926A937A938A939A93AA93BA93E3
:10040400EA93FA93EFB7EA934CB0E42DF0E0E033CB
:10041400A0E0FA0721F4E1E0E0931C054CC0E133CD
:10042400A0E0FA0721F4E1E0E0931D0544C0E233C3
:10043400A0E0FA0721F4E1E0E0931E053CC0E333B9
:10044400A0E0FA0711F4C39A36C0E433A0E0FA0737
:1004540011F4C39830C0E533A0E0FA0711F4C49A4C
:100464002AC0E633A0E0FA0711F4C49824C0E733A5
:10047400A0E0FA0729F4F301EC59FF4F3F011AC039
:10048400E833A0E0FA0729F4E4E6F0E06E1A7F0A04
:1004940011C0E933A0E0FA0729F4F401EC59FF4F45
:1004A4004F0108C0E136A0E0FA0729F4E4E6F0E0E1
:1004B4008E1A9F0AE4DEE991EFBFF991E991B991AF
:1004C400A9919991899179916991F99019900990DB
:1004D40018955CB85598189517E000E0E2E8E2B981
:1004E400E8E7E7BBEFE0EABBE0E8EFBFE0E5EFBD3C
:1004F400EAE0EEBDE0E0EABDEBBDE8BDE9BDEDBD7F
:10050400ECBDE7BF35DE40DEBADE00300CF4012F6F
:10051400E12FA02FB0E0A7FDBFEFF0E0EA17FB0743
:100524000CF400E0E02FF0E0E7FDFFEF3097C9F4B2
:10053400A0E0B5E086DEE0911D05E03089F4A091ED
:100544001C05A13029F40E949A03A1E00E949F0394
:10055400A0911E05A13019F40E94A50301C0EBCFA0
:10056400C6C0E130A0E0FA07C9F4A3E0B5E069DE53
:10057400E0911D05E03089F4A0911C05A13029F417
:100584000E949A03A2E00E949F03A0911E05A1303D
:1005940019F40E94A50301C0EBCFA9C0E230A0E08A
:1005A400FA07C9F4A6E0B5E04CDEE0911D05E030A1
:1005B40089F4A0911C05A13029F40E949A03A4E0B7
:1005C4000E949F03A0911E05A13019F40E94A50367
:1005D40001C0EBCF8CC0E330A0E0FA07C9F4A9E076
:1005E400B5E02FDEE0911D05E03089F4A0911C05F3
:1005F400A13029F40E949A03A8E0EA27EBBBA0915A
:100604001E05A13019F40E94A50301C0EBCF6FC0F1
:10061400E430A0E0FA07C1F4ACE0B5E012DEE0910A
:100624001D05E03081F4A0911C05A13021F4E0E027
:10063400E0931C052DDEA0911E05A13019F40E9443
:10064400A50301C0ECCF53C0E530A0E0FA07C1F424
:10065400AFE0B5E0F6DDE0911D05E03081F4A09156
:100664001C05A13021F4E0E0E0931C0561DEA091BB
:100674001E05A13019F40E94A50301C0ECCF37C0B8
:10068400E630A0E0FA07C1F4A2E1B5E0DADDE091DA
:100694001D05E03081F4A0911C05A13021F4E0E0B7
:1006A400E0931C0517DEA0911E05A13019F40E94E9
:1006B400A50301C0ECCF1BC0E730A0E0FA07D9F4D2
:1006C400A5E1B5E0BEDDE0911D05E03081F4A09127
:1006D4001C05A13021F4E0E0E0931C054BDEA09161
:1006E4001E05A13019F40E94A50301C0ECCF0F5FD1
:1006F400E0E0E0931D0509CFFFCFD6010E94D900A9
:10070400DF010C942301A0911A05B0911B050E94EE
:10071400D900DF010C942301D3010E94D900DF0129
:100724000C942301D4010E94D900DF010C9423010D
:10073400E0E0E0931C05EBB30895EA27EBBBE7B7D1
:10074400E061E7BF08950250E0E0E0931E050895DC
:10075400109639F080EA9FE00197F1F7A895119778
:10076400C9F70895F195E195F04008950024112406
:1007740090E1AA0FBB1F001C111C0E1A1F0A18F4CB
:100784000E0E1F1E01C0A1609A9599F7FD01D001BC
:10079400089512D0EBDF0EF4E5DF0895E894B7FF77
:1007A40004C0A095B09511966894F7FDDBDFDEDFF9
:1007B400FD010EF4D7DF0895E894F7FF02C0D2DFFD
:1007C4006894B7FF06C0A095B095119600F80394FD
:1007D40000FA08951B2EBF2FF12D1A2EAE2FE12DF6
:1007E4000895AC0FBD1F05900D928A95E1F7089509
:00000001FF
